{
  "_format": "hh-sol-artifact-1",
  "contractName": "WavePortal",
  "sourceName": "contracts/WavePortal.sol",
  "abi": [
    {
      "inputs": [],
      "stateMutability": "nonpayable",
      "type": "constructor"
    },
    {
      "anonymous": false,
      "inputs": [
        {
          "indexed": true,
          "internalType": "address",
          "name": "from",
          "type": "address"
        },
        {
          "indexed": false,
          "internalType": "uint256",
          "name": "timestamp",
          "type": "uint256"
        },
        {
          "indexed": false,
          "internalType": "string",
          "name": "message",
          "type": "string"
        }
      ],
      "name": "NewWave",
      "type": "event"
    },
    {
      "inputs": [],
      "name": "getAllWaves",
      "outputs": [
        {
          "components": [
            {
              "internalType": "address",
              "name": "from",
              "type": "address"
            },
            {
              "internalType": "uint256",
              "name": "timestamp",
              "type": "uint256"
            },
            {
              "internalType": "string",
              "name": "message",
              "type": "string"
            }
          ],
          "internalType": "struct WavePortal.Wave[]",
          "name": "",
          "type": "tuple[]"
        }
      ],
      "stateMutability": "view",
      "type": "function"
    },
    {
      "inputs": [],
      "name": "getWaveCount",
      "outputs": [
        {
          "internalType": "uint256",
          "name": "",
          "type": "uint256"
        }
      ],
      "stateMutability": "view",
      "type": "function"
    },
    {
      "inputs": [],
      "name": "totalWaves",
      "outputs": [
        {
          "internalType": "uint256",
          "name": "",
          "type": "uint256"
        }
      ],
      "stateMutability": "view",
      "type": "function"
    },
    {
      "inputs": [
        {
          "internalType": "string",
          "name": "_message",
          "type": "string"
        }
      ],
      "name": "wave",
      "outputs": [],
      "stateMutability": "nonpayable",
      "type": "function"
    }
  ],
  "bytecode": "0x60806040523480156200001157600080fd5b506200004160405180606001604052806025815260200162000e41602591396200004760201b620003e11760201c565b620001db565b620000e7816040516024016200005e919062000154565b6040516020818303038152906040527f41304fac000000000000000000000000000000000000000000000000000000007bffffffffffffffffffffffffffffffffffffffffffffffffffffffff19166020820180517bffffffffffffffffffffffffffffffffffffffffffffffffffffffff8381831617835250505050620000ea60201b60201c565b50565b60008151905060006a636f6e736f6c652e6c6f679050602083016000808483855afa5050505050565b6000620001208262000178565b6200012c818562000183565b93506200013e81856020860162000194565b6200014981620001ca565b840191505092915050565b6000602082019050818103600083015262000170818462000113565b905092915050565b600081519050919050565b600082825260208201905092915050565b60005b83811015620001b457808201518184015260208101905062000197565b83811115620001c4576000848401525b50505050565b6000601f19601f8301169050919050565b610c5680620001eb6000396000f3fe608060405234801561001057600080fd5b506004361061004c5760003560e01c80631517c56114610051578063291bcab31461006f578063449d46c01461008d578063bd43a908146100a9575b600080fd5b6100596100c7565b604051610066919061096a565b60405180910390f35b610077610112565b604051610084919061096a565b60405180910390f35b6100a760048036038101906100a291906106e9565b610118565b005b6100b1610290565b6040516100be91906108b1565b60405180910390f35b600061010a6040518060400160405280601681526020017f256420677579287329207761766564206174207573210000000000000000000081525060005461047a565b600054905090565b60005481565b600160008082825461012a9190610a7c565b925050819055506101716040518060400160405280600d81526020017f2573206a757374207761766564000000000000000000000000000000000000008152503383610516565b600160405180606001604052803373ffffffffffffffffffffffffffffffffffffffff16815260200142815260200183815250908060018154018082558091505060019003906000526020600020906003020160009091909190915060008201518160000160006101000a81548173ffffffffffffffffffffffffffffffffffffffff021916908373ffffffffffffffffffffffffffffffffffffffff16021790555060208201518160010155604082015181600201908051906020019061023a9291906105de565b5050503373ffffffffffffffffffffffffffffffffffffffff167f5f7e16dc676677766a70e9c5628aa6c54ddb8b6e5188e2ae1e1f17f1ffbea7164283604051610285929190610985565b60405180910390a250565b60606001805480602002602001604051908101604052809291908181526020016000905b828210156103d857838290600052602060002090600302016040518060600160405290816000820160009054906101000a900473ffffffffffffffffffffffffffffffffffffffff1673ffffffffffffffffffffffffffffffffffffffff1673ffffffffffffffffffffffffffffffffffffffff1681526020016001820154815260200160028201805461034790610b50565b80601f016020809104026020016040519081016040528092919081815260200182805461037390610b50565b80156103c05780601f10610395576101008083540402835291602001916103c0565b820191906000526020600020905b8154815290600101906020018083116103a357829003601f168201915b505050505081525050815260200190600101906102b4565b50505050905090565b610477816040516024016103f591906108d3565b6040516020818303038152906040527f41304fac000000000000000000000000000000000000000000000000000000007bffffffffffffffffffffffffffffffffffffffffffffffffffffffff19166020820180517bffffffffffffffffffffffffffffffffffffffffffffffffffffffff83818316178352505050506105b5565b50565b610512828260405160240161049092919061093a565b6040516020818303038152906040527f9710a9d0000000000000000000000000000000000000000000000000000000007bffffffffffffffffffffffffffffffffffffffffffffffffffffffff19166020820180517bffffffffffffffffffffffffffffffffffffffffffffffffffffffff83818316178352505050506105b5565b5050565b6105b083838360405160240161052e939291906108f5565b6040516020818303038152906040527fe0e9ad4f000000000000000000000000000000000000000000000000000000007bffffffffffffffffffffffffffffffffffffffffffffffffffffffff19166020820180517bffffffffffffffffffffffffffffffffffffffffffffffffffffffff83818316178352505050506105b5565b505050565b60008151905060006a636f6e736f6c652e6c6f679050602083016000808483855afa5050505050565b8280546105ea90610b50565b90600052602060002090601f01602090048101928261060c5760008555610653565b82601f1061062557805160ff1916838001178555610653565b82800160010185558215610653579182015b82811115610652578251825591602001919060010190610637565b5b5090506106609190610664565b5090565b5b8082111561067d576000816000905550600101610665565b5090565b600061069461068f846109e6565b6109b5565b9050828152602081018484840111156106ac57600080fd5b6106b7848285610b0e565b509392505050565b600082601f8301126106d057600080fd5b81356106e0848260208601610681565b91505092915050565b6000602082840312156106fb57600080fd5b600082013567ffffffffffffffff81111561071557600080fd5b610721848285016106bf565b91505092915050565b60006107368383610843565b905092915050565b61074781610ad2565b82525050565b61075681610ad2565b82525050565b600061076782610a26565b6107718185610a49565b93508360208202850161078385610a16565b8060005b858110156107bf57848403895281516107a0858261072a565b94506107ab83610a3c565b925060208a01995050600181019050610787565b50829750879550505050505092915050565b60006107dc82610a31565b6107e68185610a5a565b93506107f6818560208601610b1d565b6107ff81610c0f565b840191505092915050565b600061081582610a31565b61081f8185610a6b565b935061082f818560208601610b1d565b61083881610c0f565b840191505092915050565b600060608301600083015161085b600086018261073e565b50602083015161086e6020860182610893565b506040830151848203604086015261088682826107d1565b9150508091505092915050565b61089c81610b04565b82525050565b6108ab81610b04565b82525050565b600060208201905081810360008301526108cb818461075c565b905092915050565b600060208201905081810360008301526108ed818461080a565b905092915050565b6000606082019050818103600083015261090f818661080a565b905061091e602083018561074d565b8181036040830152610930818461080a565b9050949350505050565b60006040820190508181036000830152610954818561080a565b905061096360208301846108a2565b9392505050565b600060208201905061097f60008301846108a2565b92915050565b600060408201905061099a60008301856108a2565b81810360208301526109ac818461080a565b90509392505050565b6000604051905081810181811067ffffffffffffffff821117156109dc576109db610be0565b5b8060405250919050565b600067ffffffffffffffff821115610a0157610a00610be0565b5b601f19601f8301169050602081019050919050565b6000819050602082019050919050565b600081519050919050565b600081519050919050565b6000602082019050919050565b600082825260208201905092915050565b600082825260208201905092915050565b600082825260208201905092915050565b6000610a8782610b04565b9150610a9283610b04565b9250827fffffffffffffffffffffffffffffffffffffffffffffffffffffffffffffffff03821115610ac757610ac6610b82565b5b828201905092915050565b6000610add82610ae4565b9050919050565b600073ffffffffffffffffffffffffffffffffffffffff82169050919050565b6000819050919050565b82818337600083830152505050565b60005b83811015610b3b578082015181840152602081019050610b20565b83811115610b4a576000848401525b50505050565b60006002820490506001821680610b6857607f821691505b60208210811415610b7c57610b7b610bb1565b5b50919050565b7f4e487b7100000000000000000000000000000000000000000000000000000000600052601160045260246000fd5b7f4e487b7100000000000000000000000000000000000000000000000000000000600052602260045260246000fd5b7f4e487b7100000000000000000000000000000000000000000000000000000000600052604160045260246000fd5b6000601f19601f830116905091905056fea264697066735822122089535abc05e5d32a7b88ece54c564fdfd48a879f6f07eee3c9e0e07aa5e9a6a964736f6c63430008000033596f20796f2c204920616d206120636f6e747261637420616e64204920616d20736d617274",
  "linkReferences": {},
  "deployedLinkReferences": {}
}