{
  "_format": "hh-sol-artifact-1",
  "contractName": "WavePortal",
  "sourceName": "contracts/WavePortal.sol",
  "abi": [
    {
      "inputs": [],
      "stateMutability": "nonpayable",
      "type": "constructor"
    },
    {
      "inputs": [],
      "name": "getWaveCount",
      "outputs": [
        {
          "internalType": "uint256",
          "name": "",
          "type": "uint256"
        }
      ],
      "stateMutability": "view",
      "type": "function"
    },
    {
      "inputs": [],
      "name": "totalWaves",
      "outputs": [
        {
          "internalType": "uint256",
          "name": "",
          "type": "uint256"
        }
      ],
      "stateMutability": "view",
      "type": "function"
    },
    {
      "inputs": [],
      "name": "wave",
      "outputs": [],
      "stateMutability": "nonpayable",
      "type": "function"
    }
  ],
  "bytecode": "0x608060405234801561001057600080fd5b5061003c60405180606001604052806025815260200161074f6025913961004160201b6101371760201c565b6101c4565b6100dd816040516024016100559190610142565b6040516020818303038152906040527f41304fac000000000000000000000000000000000000000000000000000000007bffffffffffffffffffffffffffffffffffffffffffffffffffffffff19166020820180517bffffffffffffffffffffffffffffffffffffffffffffffffffffffff83818316178352505050506100e060201b60201c565b50565b60008151905060006a636f6e736f6c652e6c6f679050602083016000808483855afa5050505050565b600061011482610164565b61011e818561016f565b935061012e818560208601610180565b610137816101b3565b840191505092915050565b6000602082019050818103600083015261015c8184610109565b905092915050565b600081519050919050565b600082825260208201905092915050565b60005b8381101561019e578082015181840152602081019050610183565b838111156101ad576000848401525b50505050565b6000601f19601f8301169050919050565b61057c806101d36000396000f3fe608060405234801561001057600080fd5b50600436106100415760003560e01c80631517c56114610046578063291bcab3146100645780636fe15b4414610082575b600080fd5b61004e61008c565b60405161005b919061040a565b60405180910390f35b61006c6100d7565b604051610079919061040a565b60405180910390f35b61008a6100dd565b005b60006100cf6040518060400160405280601681526020017f25642067757928732920776176656420617420757321000000000000000000008152506000546101d0565b600054905090565b60005481565b60016000808282546100ef9190610441565b925050819055506101356040518060400160405280600d81526020017f2573206a757374207761766564000000000000000000000000000000000000008152503361026c565b565b6101cd8160405160240161014b9190610388565b6040516020818303038152906040527f41304fac000000000000000000000000000000000000000000000000000000007bffffffffffffffffffffffffffffffffffffffffffffffffffffffff19166020820180517bffffffffffffffffffffffffffffffffffffffffffffffffffffffff8381831617835250505050610308565b50565b61026882826040516024016101e69291906103da565b6040516020818303038152906040527f9710a9d0000000000000000000000000000000000000000000000000000000007bffffffffffffffffffffffffffffffffffffffffffffffffffffffff19166020820180517bffffffffffffffffffffffffffffffffffffffffffffffffffffffff8381831617835250505050610308565b5050565b61030482826040516024016102829291906103aa565b6040516020818303038152906040527f319af333000000000000000000000000000000000000000000000000000000007bffffffffffffffffffffffffffffffffffffffffffffffffffffffff19166020820180517bffffffffffffffffffffffffffffffffffffffffffffffffffffffff8381831617835250505050610308565b5050565b60008151905060006a636f6e736f6c652e6c6f679050602083016000808483855afa5050505050565b61033a81610497565b82525050565b600061034b82610425565b6103558185610430565b93506103658185602086016104d3565b61036e81610535565b840191505092915050565b610382816104c9565b82525050565b600060208201905081810360008301526103a28184610340565b905092915050565b600060408201905081810360008301526103c48185610340565b90506103d36020830184610331565b9392505050565b600060408201905081810360008301526103f48185610340565b90506104036020830184610379565b9392505050565b600060208201905061041f6000830184610379565b92915050565b600081519050919050565b600082825260208201905092915050565b600061044c826104c9565b9150610457836104c9565b9250827fffffffffffffffffffffffffffffffffffffffffffffffffffffffffffffffff0382111561048c5761048b610506565b5b828201905092915050565b60006104a2826104a9565b9050919050565b600073ffffffffffffffffffffffffffffffffffffffff82169050919050565b6000819050919050565b60005b838110156104f15780820151818401526020810190506104d6565b83811115610500576000848401525b50505050565b7f4e487b7100000000000000000000000000000000000000000000000000000000600052601160045260246000fd5b6000601f19601f830116905091905056fea26469706673582212209b10a6f7465b7cc011f231b48fbea2c78b864aa316e877be5f74f223093c018264736f6c63430008000033596f20796f2c204920616d206120636f6e747261637420616e64204920616d20736d617274",
  "linkReferences": {},
  "deployedLinkReferences": {}
}